{
  "_format": "hh-sol-artifact-1",
  "contractName": "NFT",
  "sourceName": "contracts/NFT.sol",
  "abi": [
    {
      "inputs": [],
      "stateMutability": "nonpayable",
      "type": "constructor"
    },
    {
      "anonymous": false,
      "inputs": [
        {
          "indexed": true,
          "internalType": "address",
          "name": "owner",
          "type": "address"
        },
        {
          "indexed": true,
          "internalType": "address",
          "name": "approved",
          "type": "address"
        },
        {
          "indexed": true,
          "internalType": "uint256",
          "name": "tokenId",
          "type": "uint256"
        }
      ],
      "name": "Approval",
      "type": "event"
    },
    {
      "anonymous": false,
      "inputs": [
        {
          "indexed": true,
          "internalType": "address",
          "name": "owner",
          "type": "address"
        },
        {
          "indexed": true,
          "internalType": "address",
          "name": "operator",
          "type": "address"
        },
        {
          "indexed": false,
          "internalType": "bool",
          "name": "approved",
          "type": "bool"
        }
      ],
      "name": "ApprovalForAll",
      "type": "event"
    },
    {
      "anonymous": false,
      "inputs": [
        {
          "indexed": true,
          "internalType": "address",
          "name": "previousOwner",
          "type": "address"
        },
        {
          "indexed": true,
          "internalType": "address",
          "name": "newOwner",
          "type": "address"
        }
      ],
      "name": "OwnershipTransferred",
      "type": "event"
    },
    {
      "anonymous": false,
      "inputs": [
        {
          "indexed": true,
          "internalType": "address",
          "name": "from",
          "type": "address"
        },
        {
          "indexed": true,
          "internalType": "address",
          "name": "to",
          "type": "address"
        },
        {
          "indexed": true,
          "internalType": "uint256",
          "name": "tokenId",
          "type": "uint256"
        }
      ],
      "name": "Transfer",
      "type": "event"
    },
    {
      "inputs": [],
      "name": "TOTAL_SUPPLY",
      "outputs": [
        {
          "internalType": "uint256",
          "name": "",
          "type": "uint256"
        }
      ],
      "stateMutability": "view",
      "type": "function"
    },
    {
      "inputs": [
        {
          "internalType": "address",
          "name": "to",
          "type": "address"
        },
        {
          "internalType": "uint256",
          "name": "tokenId",
          "type": "uint256"
        }
      ],
      "name": "approve",
      "outputs": [],
      "stateMutability": "nonpayable",
      "type": "function"
    },
    {
      "inputs": [
        {
          "internalType": "address",
          "name": "owner",
          "type": "address"
        }
      ],
      "name": "balanceOf",
      "outputs": [
        {
          "internalType": "uint256",
          "name": "",
          "type": "uint256"
        }
      ],
      "stateMutability": "view",
      "type": "function"
    },
    {
      "inputs": [],
      "name": "baseTokenURI",
      "outputs": [
        {
          "internalType": "string",
          "name": "",
          "type": "string"
        }
      ],
      "stateMutability": "view",
      "type": "function"
    },
    {
      "inputs": [
        {
          "internalType": "uint256",
          "name": "tokenId",
          "type": "uint256"
        }
      ],
      "name": "getApproved",
      "outputs": [
        {
          "internalType": "address",
          "name": "",
          "type": "address"
        }
      ],
      "stateMutability": "view",
      "type": "function"
    },
    {
      "inputs": [
        {
          "internalType": "address",
          "name": "owner",
          "type": "address"
        },
        {
          "internalType": "address",
          "name": "operator",
          "type": "address"
        }
      ],
      "name": "isApprovedForAll",
      "outputs": [
        {
          "internalType": "bool",
          "name": "",
          "type": "bool"
        }
      ],
      "stateMutability": "view",
      "type": "function"
    },
    {
      "inputs": [
        {
          "internalType": "address",
          "name": "recipient",
          "type": "address"
        }
      ],
      "name": "mintTo",
      "outputs": [
        {
          "internalType": "uint256",
          "name": "",
          "type": "uint256"
        }
      ],
      "stateMutability": "payable",
      "type": "function"
    },
    {
      "inputs": [],
      "name": "name",
      "outputs": [
        {
          "internalType": "string",
          "name": "",
          "type": "string"
        }
      ],
      "stateMutability": "view",
      "type": "function"
    },
    {
      "inputs": [],
      "name": "owner",
      "outputs": [
        {
          "internalType": "address",
          "name": "",
          "type": "address"
        }
      ],
      "stateMutability": "view",
      "type": "function"
    },
    {
      "inputs": [
        {
          "internalType": "uint256",
          "name": "tokenId",
          "type": "uint256"
        }
      ],
      "name": "ownerOf",
      "outputs": [
        {
          "internalType": "address",
          "name": "",
          "type": "address"
        }
      ],
      "stateMutability": "view",
      "type": "function"
    },
    {
      "inputs": [
        {
          "internalType": "address",
          "name": "dest",
          "type": "address"
        }
      ],
      "name": "payments",
      "outputs": [
        {
          "internalType": "uint256",
          "name": "",
          "type": "uint256"
        }
      ],
      "stateMutability": "view",
      "type": "function"
    },
    {
      "inputs": [],
      "name": "renounceOwnership",
      "outputs": [],
      "stateMutability": "nonpayable",
      "type": "function"
    },
    {
      "inputs": [
        {
          "internalType": "address",
          "name": "from",
          "type": "address"
        },
        {
          "internalType": "address",
          "name": "to",
          "type": "address"
        },
        {
          "internalType": "uint256",
          "name": "tokenId",
          "type": "uint256"
        }
      ],
      "name": "safeTransferFrom",
      "outputs": [],
      "stateMutability": "nonpayable",
      "type": "function"
    },
    {
      "inputs": [
        {
          "internalType": "address",
          "name": "from",
          "type": "address"
        },
        {
          "internalType": "address",
          "name": "to",
          "type": "address"
        },
        {
          "internalType": "uint256",
          "name": "tokenId",
          "type": "uint256"
        },
        {
          "internalType": "bytes",
          "name": "data",
          "type": "bytes"
        }
      ],
      "name": "safeTransferFrom",
      "outputs": [],
      "stateMutability": "nonpayable",
      "type": "function"
    },
    {
      "inputs": [
        {
          "internalType": "address",
          "name": "operator",
          "type": "address"
        },
        {
          "internalType": "bool",
          "name": "approved",
          "type": "bool"
        }
      ],
      "name": "setApprovalForAll",
      "outputs": [],
      "stateMutability": "nonpayable",
      "type": "function"
    },
    {
      "inputs": [
        {
          "internalType": "string",
          "name": "_baseTokenURI",
          "type": "string"
        }
      ],
      "name": "setBaseTokenURI",
      "outputs": [],
      "stateMutability": "nonpayable",
      "type": "function"
    },
    {
      "inputs": [
        {
          "internalType": "bytes4",
          "name": "interfaceId",
          "type": "bytes4"
        }
      ],
      "name": "supportsInterface",
      "outputs": [
        {
          "internalType": "bool",
          "name": "",
          "type": "bool"
        }
      ],
      "stateMutability": "view",
      "type": "function"
    },
    {
      "inputs": [],
      "name": "symbol",
      "outputs": [
        {
          "internalType": "string",
          "name": "",
          "type": "string"
        }
      ],
      "stateMutability": "view",
      "type": "function"
    },
    {
      "inputs": [
        {
          "internalType": "uint256",
          "name": "tokenId",
          "type": "uint256"
        }
      ],
      "name": "tokenURI",
      "outputs": [
        {
          "internalType": "string",
          "name": "",
          "type": "string"
        }
      ],
      "stateMutability": "view",
      "type": "function"
    },
    {
      "inputs": [
        {
          "internalType": "address",
          "name": "from",
          "type": "address"
        },
        {
          "internalType": "address",
          "name": "to",
          "type": "address"
        },
        {
          "internalType": "uint256",
          "name": "tokenId",
          "type": "uint256"
        }
      ],
      "name": "transferFrom",
      "outputs": [],
      "stateMutability": "nonpayable",
      "type": "function"
    },
    {
      "inputs": [
        {
          "internalType": "address",
          "name": "newOwner",
          "type": "address"
        }
      ],
      "name": "transferOwnership",
      "outputs": [],
      "stateMutability": "nonpayable",
      "type": "function"
    },
    {
      "inputs": [
        {
          "internalType": "address payable",
          "name": "payee",
          "type": "address"
        }
      ],
      "name": "withdrawPayments",
      "outputs": [],
      "stateMutability": "nonpayable",
      "type": "function"
    }
  ],
  "bytecode": "0x60a06040523480156200001157600080fd5b506040518060400160405280600b81526020017f4e46545475746f7269616c0000000000000000000000000000000000000000008152506040518060400160405280600381526020017f4e4654000000000000000000000000000000000000000000000000000000000081525081600090805190602001906200009692919062000230565b508060019080519060200190620000af92919062000230565b505050604051620000c090620002c1565b604051809103906000f080158015620000dd573d6000803e3d6000fd5b5073ffffffffffffffffffffffffffffffffffffffff1660808173ffffffffffffffffffffffffffffffffffffffff1660601b8152505062000134620001286200016260201b60201c565b6200016a60201b60201c565b60405180602001604052806000815250600890805190602001906200015b92919062000230565b5062000353565b600033905090565b6000600660009054906101000a900473ffffffffffffffffffffffffffffffffffffffff16905081600660006101000a81548173ffffffffffffffffffffffffffffffffffffffff021916908373ffffffffffffffffffffffffffffffffffffffff1602179055508173ffffffffffffffffffffffffffffffffffffffff168173ffffffffffffffffffffffffffffffffffffffff167f8be0079c531659141344cd1fd0a4f28419497f9722a3daafe3b4186f6b6457e060405160405180910390a35050565b8280546200023e90620002ee565b90600052602060002090601f016020900481019282620002625760008555620002ae565b82601f106200027d57805160ff1916838001178555620002ae565b82800160010185558215620002ae579182015b82811115620002ad57825182559160200191906001019062000290565b5b509050620002bd9190620002cf565b5090565b610bb7806200311383390190565b5b80821115620002ea576000816000905550600101620002d0565b5090565b600060028204905060018216806200030757607f821691505b602082108114156200031e576200031d62000324565b5b50919050565b7f4e487b7100000000000000000000000000000000000000000000000000000000600052602260045260246000fd5b60805160601c612d9a6200037960003960008181610d7801526114300152612d9a6000f3fe6080604052600436106101355760003560e01c8063755edd17116100ab578063b88d4fde1161006f578063b88d4fde14610417578063c87b56dd14610440578063d547cfb71461047d578063e2982c21146104a8578063e985e9c5146104e5578063f2fde38b1461052257610135565b8063755edd171461033d5780638da5cb5b1461036d578063902d55a51461039857806395d89b41146103c3578063a22cb465146103ee57610135565b806330176e13116100fd57806330176e131461023157806331b3eb941461025a57806342842e0e146102835780636352211e146102ac57806370a08231146102e9578063715018a61461032657610135565b806301ffc9a71461013a57806306fdde0314610177578063081812fc146101a2578063095ea7b3146101df57806323b872dd14610208575b600080fd5b34801561014657600080fd5b50610161600480360381019061015c9190611fc8565b61054b565b60405161016e91906123ea565b60405180910390f35b34801561018357600080fd5b5061018c61062d565b6040516101999190612405565b60405180910390f35b3480156101ae57600080fd5b506101c960048036038101906101c4919061205b565b6106bf565b6040516101d69190612368565b60405180910390f35b3480156101eb57600080fd5b5061020660048036038101906102019190611f8c565b610705565b005b34801561021457600080fd5b5061022f600480360381019061022a9190611e86565b61081d565b005b34801561023d57600080fd5b506102586004803603810190610253919061201a565b61087d565b005b34801561026657600080fd5b50610281600480360381019061027c9190611e21565b61089f565b005b34801561028f57600080fd5b506102aa60048036038101906102a59190611e86565b6108b3565b005b3480156102b857600080fd5b506102d360048036038101906102ce919061205b565b6108d3565b6040516102e09190612368565b60405180910390f35b3480156102f557600080fd5b50610310600480360381019061030b9190611df8565b610985565b60405161031d9190612607565b60405180910390f35b34801561033257600080fd5b5061033b610a3d565b005b61035760048036038101906103529190611df8565b610a51565b6040516103649190612607565b60405180910390f35b34801561037957600080fd5b50610382610ad0565b60405161038f9190612368565b60405180910390f35b3480156103a457600080fd5b506103ad610afa565b6040516103ba9190612607565b60405180910390f35b3480156103cf57600080fd5b506103d8610b00565b6040516103e59190612405565b60405180910390f35b3480156103fa57600080fd5b5061041560048036038101906104109190611f50565b610b92565b005b34801561042357600080fd5b5061043e60048036038101906104399190611ed5565b610ba8565b005b34801561044c57600080fd5b506104676004803603810190610462919061205b565b610c0a565b6040516104749190612405565b60405180910390f35b34801561048957600080fd5b50610492610ce6565b60405161049f9190612405565b60405180910390f35b3480156104b457600080fd5b506104cf60048036038101906104ca9190611df8565b610d74565b6040516104dc9190612607565b60405180910390f35b3480156104f157600080fd5b5061050c60048036038101906105079190611e4a565b610e26565b60405161051991906123ea565b60405180910390f35b34801561052e57600080fd5b5061054960048036038101906105449190611df8565b610eba565b005b60007f80ac58cd000000000000000000000000000000000000000000000000000000007bffffffffffffffffffffffffffffffffffffffffffffffffffffffff1916827bffffffffffffffffffffffffffffffffffffffffffffffffffffffff1916148061061657507f5b5e139f000000000000000000000000000000000000000000000000000000007bffffffffffffffffffffffffffffffffffffffffffffffffffffffff1916827bffffffffffffffffffffffffffffffffffffffffffffffffffffffff1916145b80610626575061062582610f3e565b5b9050919050565b60606000805461063c90612833565b80601f016020809104026020016040519081016040528092919081815260200182805461066890612833565b80156106b55780601f1061068a576101008083540402835291602001916106b5565b820191906000526020600020905b81548152906001019060200180831161069857829003601f168201915b5050505050905090565b60006106ca82610fa8565b6004600083815260200190815260200160002060009054906101000a900473ffffffffffffffffffffffffffffffffffffffff169050919050565b6000610710826108d3565b90508073ffffffffffffffffffffffffffffffffffffffff168373ffffffffffffffffffffffffffffffffffffffff161415610781576040517f08c379a0000000000000000000000000000000000000000000000000000000008152600401610778906125a7565b60405180910390fd5b8073ffffffffffffffffffffffffffffffffffffffff166107a0610ff3565b73ffffffffffffffffffffffffffffffffffffffff1614806107cf57506107ce816107c9610ff3565b610e26565b5b61080e576040517f08c379a000000000000000000000000000000000000000000000000000000000815260040161080590612507565b60405180910390fd5b6108188383610ffb565b505050565b61082e610828610ff3565b826110b4565b61086d576040517f08c379a0000000000000000000000000000000000000000000000000000000008152600401610864906125e7565b60405180910390fd5b610878838383611149565b505050565b6108856113b0565b806008908051906020019061089b929190611bf2565b5050565b6108a76113b0565b6108b08161142e565b50565b6108ce83838360405180602001604052806000815250610ba8565b505050565b6000806002600084815260200190815260200160002060009054906101000a900473ffffffffffffffffffffffffffffffffffffffff169050600073ffffffffffffffffffffffffffffffffffffffff168173ffffffffffffffffffffffffffffffffffffffff16141561097c576040517f08c379a000000000000000000000000000000000000000000000000000000000815260040161097390612587565b60405180910390fd5b80915050919050565b60008073ffffffffffffffffffffffffffffffffffffffff168273ffffffffffffffffffffffffffffffffffffffff1614156109f6576040517f08c379a00000000000000000000000000000000000000000000000000000000081526004016109ed906124e7565b60405180910390fd5b600360008373ffffffffffffffffffffffffffffffffffffffff1673ffffffffffffffffffffffffffffffffffffffff168152602001908152602001600020549050919050565b610a456113b0565b610a4f60006114bc565b565b600080610a5e6007611582565b90506127108110610aa4576040517f08c379a0000000000000000000000000000000000000000000000000000000008152600401610a9b906125c7565b60405180910390fd5b610aae6007611590565b6000610aba6007611582565b9050610ac684826115a6565b8092505050919050565b6000600660009054906101000a900473ffffffffffffffffffffffffffffffffffffffff16905090565b61271081565b606060018054610b0f90612833565b80601f0160208091040260200160405190810160405280929190818152602001828054610b3b90612833565b8015610b885780601f10610b5d57610100808354040283529160200191610b88565b820191906000526020600020905b815481529060010190602001808311610b6b57829003601f168201915b5050505050905090565b610ba4610b9d610ff3565b83836115c4565b5050565b610bb9610bb3610ff3565b836110b4565b610bf8576040517f08c379a0000000000000000000000000000000000000000000000000000000008152600401610bef906125e7565b60405180910390fd5b610c0484848484611731565b50505050565b6060610c158261178d565b610c54576040517f08c379a0000000000000000000000000000000000000000000000000000000008152600401610c4b90612567565b60405180910390fd5b60088054610c6190612833565b80601f0160208091040260200160405190810160405280929190818152602001828054610c8d90612833565b8015610cda5780601f10610caf57610100808354040283529160200191610cda565b820191906000526020600020905b815481529060010190602001808311610cbd57829003601f168201915b50505050509050919050565b60088054610cf390612833565b80601f0160208091040260200160405190810160405280929190818152602001828054610d1f90612833565b8015610d6c5780601f10610d4157610100808354040283529160200191610d6c565b820191906000526020600020905b815481529060010190602001808311610d4f57829003601f168201915b505050505081565b60007f000000000000000000000000000000000000000000000000000000000000000073ffffffffffffffffffffffffffffffffffffffff1663e3a9db1a836040518263ffffffff1660e01b8152600401610dcf9190612368565b60206040518083038186803b158015610de757600080fd5b505afa158015610dfb573d6000803e3d6000fd5b505050506040513d601f19601f82011682018060405250810190610e1f9190612084565b9050919050565b6000600560008473ffffffffffffffffffffffffffffffffffffffff1673ffffffffffffffffffffffffffffffffffffffff16815260200190815260200160002060008373ffffffffffffffffffffffffffffffffffffffff1673ffffffffffffffffffffffffffffffffffffffff16815260200190815260200160002060009054906101000a900460ff16905092915050565b610ec26113b0565b600073ffffffffffffffffffffffffffffffffffffffff168173ffffffffffffffffffffffffffffffffffffffff161415610f32576040517f08c379a0000000000000000000000000000000000000000000000000000000008152600401610f2990612447565b60405180910390fd5b610f3b816114bc565b50565b60007f01ffc9a7000000000000000000000000000000000000000000000000000000007bffffffffffffffffffffffffffffffffffffffffffffffffffffffff1916827bffffffffffffffffffffffffffffffffffffffffffffffffffffffff1916149050919050565b610fb18161178d565b610ff0576040517f08c379a0000000000000000000000000000000000000000000000000000000008152600401610fe790612587565b60405180910390fd5b50565b600033905090565b816004600083815260200190815260200160002060006101000a81548173ffffffffffffffffffffffffffffffffffffffff021916908373ffffffffffffffffffffffffffffffffffffffff160217905550808273ffffffffffffffffffffffffffffffffffffffff1661106e836108d3565b73ffffffffffffffffffffffffffffffffffffffff167f8c5be1e5ebec7d5bd14f71427d1e84f3dd0314c0f7b2291e5b200ac8c7c3b92560405160405180910390a45050565b6000806110c0836108d3565b90508073ffffffffffffffffffffffffffffffffffffffff168473ffffffffffffffffffffffffffffffffffffffff16148061110257506111018185610e26565b5b8061114057508373ffffffffffffffffffffffffffffffffffffffff16611128846106bf565b73ffffffffffffffffffffffffffffffffffffffff16145b91505092915050565b8273ffffffffffffffffffffffffffffffffffffffff16611169826108d3565b73ffffffffffffffffffffffffffffffffffffffff16146111bf576040517f08c379a00000000000000000000000000000000000000000000000000000000081526004016111b690612467565b60405180910390fd5b600073ffffffffffffffffffffffffffffffffffffffff168273ffffffffffffffffffffffffffffffffffffffff16141561122f576040517f08c379a0000000000000000000000000000000000000000000000000000000008152600401611226906124a7565b60405180910390fd5b61123a8383836117f9565b611245600082610ffb565b6001600360008573ffffffffffffffffffffffffffffffffffffffff1673ffffffffffffffffffffffffffffffffffffffff16815260200190815260200160002060008282546112959190612737565b925050819055506001600360008473ffffffffffffffffffffffffffffffffffffffff1673ffffffffffffffffffffffffffffffffffffffff16815260200190815260200160002060008282546112ec91906126e1565b92505081905550816002600083815260200190815260200160002060006101000a81548173ffffffffffffffffffffffffffffffffffffffff021916908373ffffffffffffffffffffffffffffffffffffffff160217905550808273ffffffffffffffffffffffffffffffffffffffff168473ffffffffffffffffffffffffffffffffffffffff167fddf252ad1be2c89b69c2b068fc378daa952ba7f163c4a11628f55a4df523b3ef60405160405180910390a46113ab8383836117fe565b505050565b6113b8610ff3565b73ffffffffffffffffffffffffffffffffffffffff166113d6610ad0565b73ffffffffffffffffffffffffffffffffffffffff161461142c576040517f08c379a000000000000000000000000000000000000000000000000000000000815260040161142390612547565b60405180910390fd5b565b7f000000000000000000000000000000000000000000000000000000000000000073ffffffffffffffffffffffffffffffffffffffff166351cff8d9826040518263ffffffff1660e01b81526004016114879190612383565b600060405180830381600087803b1580156114a157600080fd5b505af11580156114b5573d6000803e3d6000fd5b5050505050565b6000600660009054906101000a900473ffffffffffffffffffffffffffffffffffffffff16905081600660006101000a81548173ffffffffffffffffffffffffffffffffffffffff021916908373ffffffffffffffffffffffffffffffffffffffff1602179055508173ffffffffffffffffffffffffffffffffffffffff168173ffffffffffffffffffffffffffffffffffffffff167f8be0079c531659141344cd1fd0a4f28419497f9722a3daafe3b4186f6b6457e060405160405180910390a35050565b600081600001549050919050565b6001816000016000828254019250508190555050565b6115c0828260405180602001604052806000815250611803565b5050565b8173ffffffffffffffffffffffffffffffffffffffff168373ffffffffffffffffffffffffffffffffffffffff161415611633576040517f08c379a000000000000000000000000000000000000000000000000000000000815260040161162a906124c7565b60405180910390fd5b80600560008573ffffffffffffffffffffffffffffffffffffffff1673ffffffffffffffffffffffffffffffffffffffff16815260200190815260200160002060008473ffffffffffffffffffffffffffffffffffffffff1673ffffffffffffffffffffffffffffffffffffffff16815260200190815260200160002060006101000a81548160ff0219169083151502179055508173ffffffffffffffffffffffffffffffffffffffff168373ffffffffffffffffffffffffffffffffffffffff167f17307eab39ab6107e8899845ad3d59bd9653f200f220920489ca2b5937696c318360405161172491906123ea565b60405180910390a3505050565b61173c848484611149565b6117488484848461185e565b611787576040517f08c379a000000000000000000000000000000000000000000000000000000000815260040161177e90612427565b60405180910390fd5b50505050565b60008073ffffffffffffffffffffffffffffffffffffffff166002600084815260200190815260200160002060009054906101000a900473ffffffffffffffffffffffffffffffffffffffff1673ffffffffffffffffffffffffffffffffffffffff1614159050919050565b505050565b505050565b61180d83836119f5565b61181a600084848461185e565b611859576040517f08c379a000000000000000000000000000000000000000000000000000000000815260040161185090612427565b60405180910390fd5b505050565b600061187f8473ffffffffffffffffffffffffffffffffffffffff16611bcf565b156119e8578373ffffffffffffffffffffffffffffffffffffffff1663150b7a026118a8610ff3565b8786866040518563ffffffff1660e01b81526004016118ca949392919061239e565b602060405180830381600087803b1580156118e457600080fd5b505af192505050801561191557506040513d601f19601f820116820180604052508101906119129190611ff1565b60015b611998573d8060008114611945576040519150601f19603f3d011682016040523d82523d6000602084013e61194a565b606091505b50600081511415611990576040517f08c379a000000000000000000000000000000000000000000000000000000000815260040161198790612427565b60405180910390fd5b805181602001fd5b63150b7a0260e01b7bffffffffffffffffffffffffffffffffffffffffffffffffffffffff1916817bffffffffffffffffffffffffffffffffffffffffffffffffffffffff1916149150506119ed565b600190505b949350505050565b600073ffffffffffffffffffffffffffffffffffffffff168273ffffffffffffffffffffffffffffffffffffffff161415611a65576040517f08c379a0000000000000000000000000000000000000000000000000000000008152600401611a5c90612527565b60405180910390fd5b611a6e8161178d565b15611aae576040517f08c379a0000000000000000000000000000000000000000000000000000000008152600401611aa590612487565b60405180910390fd5b611aba600083836117f9565b6001600360008473ffffffffffffffffffffffffffffffffffffffff1673ffffffffffffffffffffffffffffffffffffffff1681526020019081526020016000206000828254611b0a91906126e1565b92505081905550816002600083815260200190815260200160002060006101000a81548173ffffffffffffffffffffffffffffffffffffffff021916908373ffffffffffffffffffffffffffffffffffffffff160217905550808273ffffffffffffffffffffffffffffffffffffffff16600073ffffffffffffffffffffffffffffffffffffffff167fddf252ad1be2c89b69c2b068fc378daa952ba7f163c4a11628f55a4df523b3ef60405160405180910390a4611bcb600083836117fe565b5050565b6000808273ffffffffffffffffffffffffffffffffffffffff163b119050919050565b828054611bfe90612833565b90600052602060002090601f016020900481019282611c205760008555611c67565b82601f10611c3957805160ff1916838001178555611c67565b82800160010185558215611c67579182015b82811115611c66578251825591602001919060010190611c4b565b5b509050611c749190611c78565b5090565b5b80821115611c91576000816000905550600101611c79565b5090565b6000611ca8611ca384612647565b612622565b905082815260208101848484011115611cc057600080fd5b611ccb8482856127f1565b509392505050565b6000611ce6611ce184612678565b612622565b905082815260208101848484011115611cfe57600080fd5b611d098482856127f1565b509392505050565b600081359050611d2081612cf1565b92915050565b600081359050611d3581612d08565b92915050565b600081359050611d4a81612d1f565b92915050565b600081359050611d5f81612d36565b92915050565b600081519050611d7481612d36565b92915050565b600082601f830112611d8b57600080fd5b8135611d9b848260208601611c95565b91505092915050565b600082601f830112611db557600080fd5b8135611dc5848260208601611cd3565b91505092915050565b600081359050611ddd81612d4d565b92915050565b600081519050611df281612d4d565b92915050565b600060208284031215611e0a57600080fd5b6000611e1884828501611d11565b91505092915050565b600060208284031215611e3357600080fd5b6000611e4184828501611d26565b91505092915050565b60008060408385031215611e5d57600080fd5b6000611e6b85828601611d11565b9250506020611e7c85828601611d11565b9150509250929050565b600080600060608486031215611e9b57600080fd5b6000611ea986828701611d11565b9350506020611eba86828701611d11565b9250506040611ecb86828701611dce565b9150509250925092565b60008060008060808587031215611eeb57600080fd5b6000611ef987828801611d11565b9450506020611f0a87828801611d11565b9350506040611f1b87828801611dce565b925050606085013567ffffffffffffffff811115611f3857600080fd5b611f4487828801611d7a565b91505092959194509250565b60008060408385031215611f6357600080fd5b6000611f7185828601611d11565b9250506020611f8285828601611d3b565b9150509250929050565b60008060408385031215611f9f57600080fd5b6000611fad85828601611d11565b9250506020611fbe85828601611dce565b9150509250929050565b600060208284031215611fda57600080fd5b6000611fe884828501611d50565b91505092915050565b60006020828403121561200357600080fd5b600061201184828501611d65565b91505092915050565b60006020828403121561202c57600080fd5b600082013567ffffffffffffffff81111561204657600080fd5b61205284828501611da4565b91505092915050565b60006020828403121561206d57600080fd5b600061207b84828501611dce565b91505092915050565b60006020828403121561209657600080fd5b60006120a484828501611de3565b91505092915050565b6120b68161277d565b82525050565b6120c58161276b565b82525050565b6120d48161278f565b82525050565b60006120e5826126a9565b6120ef81856126bf565b93506120ff818560208601612800565b61210881612923565b840191505092915050565b600061211e826126b4565b61212881856126d0565b9350612138818560208601612800565b61214181612923565b840191505092915050565b60006121596032836126d0565b915061216482612934565b604082019050919050565b600061217c6026836126d0565b915061218782612983565b604082019050919050565b600061219f6025836126d0565b91506121aa826129d2565b604082019050919050565b60006121c2601c836126d0565b91506121cd82612a21565b602082019050919050565b60006121e56024836126d0565b91506121f082612a4a565b604082019050919050565b60006122086019836126d0565b915061221382612a99565b602082019050919050565b600061222b6029836126d0565b915061223682612ac2565b604082019050919050565b600061224e603e836126d0565b915061225982612b11565b604082019050919050565b60006122716020836126d0565b915061227c82612b60565b602082019050919050565b60006122946020836126d0565b915061229f82612b89565b602082019050919050565b60006122b7602f836126d0565b91506122c282612bb2565b604082019050919050565b60006122da6018836126d0565b91506122e582612c01565b602082019050919050565b60006122fd6021836126d0565b915061230882612c2a565b604082019050919050565b60006123206012836126d0565b915061232b82612c79565b602082019050919050565b6000612343602e836126d0565b915061234e82612ca2565b604082019050919050565b612362816127e7565b82525050565b600060208201905061237d60008301846120bc565b92915050565b600060208201905061239860008301846120ad565b92915050565b60006080820190506123b360008301876120bc565b6123c060208301866120bc565b6123cd6040830185612359565b81810360608301526123df81846120da565b905095945050505050565b60006020820190506123ff60008301846120cb565b92915050565b6000602082019050818103600083015261241f8184612113565b905092915050565b600060208201905081810360008301526124408161214c565b9050919050565b600060208201905081810360008301526124608161216f565b9050919050565b6000602082019050818103600083015261248081612192565b9050919050565b600060208201905081810360008301526124a0816121b5565b9050919050565b600060208201905081810360008301526124c0816121d8565b9050919050565b600060208201905081810360008301526124e0816121fb565b9050919050565b600060208201905081810360008301526125008161221e565b9050919050565b6000602082019050818103600083015261252081612241565b9050919050565b6000602082019050818103600083015261254081612264565b9050919050565b6000602082019050818103600083015261256081612287565b9050919050565b60006020820190508181036000830152612580816122aa565b9050919050565b600060208201905081810360008301526125a0816122cd565b9050919050565b600060208201905081810360008301526125c0816122f0565b9050919050565b600060208201905081810360008301526125e081612313565b9050919050565b6000602082019050818103600083015261260081612336565b9050919050565b600060208201905061261c6000830184612359565b92915050565b600061262c61263d565b90506126388282612865565b919050565b6000604051905090565b600067ffffffffffffffff821115612662576126616128f4565b5b61266b82612923565b9050602081019050919050565b600067ffffffffffffffff821115612693576126926128f4565b5b61269c82612923565b9050602081019050919050565b600081519050919050565b600081519050919050565b600082825260208201905092915050565b600082825260208201905092915050565b60006126ec826127e7565b91506126f7836127e7565b9250827fffffffffffffffffffffffffffffffffffffffffffffffffffffffffffffffff0382111561272c5761272b612896565b5b828201905092915050565b6000612742826127e7565b915061274d836127e7565b9250828210156127605761275f612896565b5b828203905092915050565b6000612776826127c7565b9050919050565b6000612788826127c7565b9050919050565b60008115159050919050565b60007fffffffff0000000000000000000000000000000000000000000000000000000082169050919050565b600073ffffffffffffffffffffffffffffffffffffffff82169050919050565b6000819050919050565b82818337600083830152505050565b60005b8381101561281e578082015181840152602081019050612803565b8381111561282d576000848401525b50505050565b6000600282049050600182168061284b57607f821691505b6020821081141561285f5761285e6128c5565b5b50919050565b61286e82612923565b810181811067ffffffffffffffff8211171561288d5761288c6128f4565b5b80604052505050565b7f4e487b7100000000000000000000000000000000000000000000000000000000600052601160045260246000fd5b7f4e487b7100000000000000000000000000000000000000000000000000000000600052602260045260246000fd5b7f4e487b7100000000000000000000000000000000000000000000000000000000600052604160045260246000fd5b6000601f19601f8301169050919050565b7f4552433732313a207472616e7366657220746f206e6f6e20455243373231526560008201527f63656976657220696d706c656d656e7465720000000000000000000000000000602082015250565b7f4f776e61626c653a206e6577206f776e657220697320746865207a65726f206160008201527f6464726573730000000000000000000000000000000000000000000000000000602082015250565b7f4552433732313a207472616e736665722066726f6d20696e636f72726563742060008201527f6f776e6572000000000000000000000000000000000000000000000000000000602082015250565b7f4552433732313a20746f6b656e20616c7265616479206d696e74656400000000600082015250565b7f4552433732313a207472616e7366657220746f20746865207a65726f2061646460008201527f7265737300000000000000000000000000000000000000000000000000000000602082015250565b7f4552433732313a20617070726f766520746f2063616c6c657200000000000000600082015250565b7f4552433732313a2061646472657373207a65726f206973206e6f74206120766160008201527f6c6964206f776e65720000000000000000000000000000000000000000000000602082015250565b7f4552433732313a20617070726f76652063616c6c6572206973206e6f7420746f60008201527f6b656e206f776e6572206e6f7220617070726f76656420666f7220616c6c0000602082015250565b7f4552433732313a206d696e7420746f20746865207a65726f2061646472657373600082015250565b7f4f776e61626c653a2063616c6c6572206973206e6f7420746865206f776e6572600082015250565b7f4552433732314d657461646174613a2055524920717565727920666f72206e6f60008201527f6e6578697374656e7420746f6b656e0000000000000000000000000000000000602082015250565b7f4552433732313a20696e76616c696420746f6b656e2049440000000000000000600082015250565b7f4552433732313a20617070726f76616c20746f2063757272656e74206f776e6560008201527f7200000000000000000000000000000000000000000000000000000000000000602082015250565b7f4d617820737570706c7920726561636865640000000000000000000000000000600082015250565b7f4552433732313a2063616c6c6572206973206e6f7420746f6b656e206f776e6560008201527f72206e6f7220617070726f766564000000000000000000000000000000000000602082015250565b612cfa8161276b565b8114612d0557600080fd5b50565b612d118161277d565b8114612d1c57600080fd5b50565b612d288161278f565b8114612d3357600080fd5b50565b612d3f8161279b565b8114612d4a57600080fd5b50565b612d56816127e7565b8114612d6157600080fd5b5056fea2646970667358221220fdf76ec8c8034c5cbb3e04724dff5d74aa9e05300004d7339e3bd9fa919a3b7964736f6c63430008010033608060405234801561001057600080fd5b5061002d61002261003260201b60201c565b61003a60201b60201c565b6100fe565b600033905090565b60008060009054906101000a900473ffffffffffffffffffffffffffffffffffffffff169050816000806101000a81548173ffffffffffffffffffffffffffffffffffffffff021916908373ffffffffffffffffffffffffffffffffffffffff1602179055508173ffffffffffffffffffffffffffffffffffffffff168173ffffffffffffffffffffffffffffffffffffffff167f8be0079c531659141344cd1fd0a4f28419497f9722a3daafe3b4186f6b6457e060405160405180910390a35050565b610aaa8061010d6000396000f3fe6080604052600436106100555760003560e01c806351cff8d91461005a578063715018a6146100835780638da5cb5b1461009a578063e3a9db1a146100c5578063f2fde38b14610102578063f340fa011461012b575b600080fd5b34801561006657600080fd5b50610081600480360381019061007c91906106a3565b610147565b005b34801561008f57600080fd5b50610098610253565b005b3480156100a657600080fd5b506100af610267565b6040516100bc91906107ae565b60405180910390f35b3480156100d157600080fd5b506100ec60048036038101906100e7919061067a565b610290565b6040516100f99190610849565b60405180910390f35b34801561010e57600080fd5b506101296004803603810190610124919061067a565b6102d9565b005b6101456004803603810190610140919061067a565b61035d565b005b61014f610412565b6000600160008373ffffffffffffffffffffffffffffffffffffffff1673ffffffffffffffffffffffffffffffffffffffff1681526020019081526020016000205490506000600160008473ffffffffffffffffffffffffffffffffffffffff1673ffffffffffffffffffffffffffffffffffffffff16815260200190815260200160002081905550610201818373ffffffffffffffffffffffffffffffffffffffff1661049090919063ffffffff16565b8173ffffffffffffffffffffffffffffffffffffffff167f7084f5476618d8e60b11ef0d7d3f06914655adb8793e28ff7f018d4c76d505d5826040516102479190610849565b60405180910390a25050565b61025b610412565b6102656000610584565b565b60008060009054906101000a900473ffffffffffffffffffffffffffffffffffffffff16905090565b6000600160008373ffffffffffffffffffffffffffffffffffffffff1673ffffffffffffffffffffffffffffffffffffffff168152602001908152602001600020549050919050565b6102e1610412565b600073ffffffffffffffffffffffffffffffffffffffff168173ffffffffffffffffffffffffffffffffffffffff161415610351576040517f08c379a0000000000000000000000000000000000000000000000000000000008152600401610348906107c9565b60405180910390fd5b61035a81610584565b50565b610365610412565b600034905080600160008473ffffffffffffffffffffffffffffffffffffffff1673ffffffffffffffffffffffffffffffffffffffff16815260200190815260200160002060008282546103b99190610880565b925050819055508173ffffffffffffffffffffffffffffffffffffffff167f2da466a7b24304f47e87fa2e1e5a81b9831ce54fec19055ce277ca2f39ba42c4826040516104069190610849565b60405180910390a25050565b61041a610648565b73ffffffffffffffffffffffffffffffffffffffff16610438610267565b73ffffffffffffffffffffffffffffffffffffffff161461048e576040517f08c379a000000000000000000000000000000000000000000000000000000000815260040161048590610829565b60405180910390fd5b565b804710156104d3576040517f08c379a00000000000000000000000000000000000000000000000000000000081526004016104ca90610809565b60405180910390fd5b60008273ffffffffffffffffffffffffffffffffffffffff16826040516104f990610799565b60006040518083038185875af1925050503d8060008114610536576040519150601f19603f3d011682016040523d82523d6000602084013e61053b565b606091505b505090508061057f576040517f08c379a0000000000000000000000000000000000000000000000000000000008152600401610576906107e9565b60405180910390fd5b505050565b60008060009054906101000a900473ffffffffffffffffffffffffffffffffffffffff169050816000806101000a81548173ffffffffffffffffffffffffffffffffffffffff021916908373ffffffffffffffffffffffffffffffffffffffff1602179055508173ffffffffffffffffffffffffffffffffffffffff168173ffffffffffffffffffffffffffffffffffffffff167f8be0079c531659141344cd1fd0a4f28419497f9722a3daafe3b4186f6b6457e060405160405180910390a35050565b600033905090565b60008135905061065f81610a46565b92915050565b60008135905061067481610a5d565b92915050565b60006020828403121561068c57600080fd5b600061069a84828501610650565b91505092915050565b6000602082840312156106b557600080fd5b60006106c384828501610665565b91505092915050565b6106d5816108d6565b82525050565b60006106e860268361086f565b91506106f382610953565b604082019050919050565b600061070b603a8361086f565b9150610716826109a2565b604082019050919050565b600061072e601d8361086f565b9150610739826109f1565b602082019050919050565b600061075160208361086f565b915061075c82610a1a565b602082019050919050565b6000610774600083610864565b915061077f82610a43565b600082019050919050565b6107938161091a565b82525050565b60006107a482610767565b9150819050919050565b60006020820190506107c360008301846106cc565b92915050565b600060208201905081810360008301526107e2816106db565b9050919050565b60006020820190508181036000830152610802816106fe565b9050919050565b6000602082019050818103600083015261082281610721565b9050919050565b6000602082019050818103600083015261084281610744565b9050919050565b600060208201905061085e600083018461078a565b92915050565b600081905092915050565b600082825260208201905092915050565b600061088b8261091a565b91506108968361091a565b9250827fffffffffffffffffffffffffffffffffffffffffffffffffffffffffffffffff038211156108cb576108ca610924565b5b828201905092915050565b60006108e1826108fa565b9050919050565b60006108f3826108fa565b9050919050565b600073ffffffffffffffffffffffffffffffffffffffff82169050919050565b6000819050919050565b7f4e487b7100000000000000000000000000000000000000000000000000000000600052601160045260246000fd5b7f4f776e61626c653a206e6577206f776e657220697320746865207a65726f206160008201527f6464726573730000000000000000000000000000000000000000000000000000602082015250565b7f416464726573733a20756e61626c6520746f2073656e642076616c75652c207260008201527f6563697069656e74206d61792068617665207265766572746564000000000000602082015250565b7f416464726573733a20696e73756666696369656e742062616c616e6365000000600082015250565b7f4f776e61626c653a2063616c6c6572206973206e6f7420746865206f776e6572600082015250565b50565b610a4f816108d6565b8114610a5a57600080fd5b50565b610a66816108e8565b8114610a7157600080fd5b5056fea26469706673582212208572fc3f6c137b8243928f2f2df2b1b4a84c2f286c9f749c054889c9c924d69b64736f6c63430008010033",
  "linkReferences": {},
  "deployedLinkReferences": {}
}