{
  "_format": "hh-sol-artifact-1",
  "contractName": "NFT",
  "sourceName": "contracts/NFT.sol",
  "abi": [
    {
      "inputs": [],
      "stateMutability": "nonpayable",
      "type": "constructor"
    },
    {
      "anonymous": false,
      "inputs": [
        {
          "indexed": true,
          "internalType": "address",
          "name": "owner",
          "type": "address"
        },
        {
          "indexed": true,
          "internalType": "address",
          "name": "approved",
          "type": "address"
        },
        {
          "indexed": true,
          "internalType": "uint256",
          "name": "tokenId",
          "type": "uint256"
        }
      ],
      "name": "Approval",
      "type": "event"
    },
    {
      "anonymous": false,
      "inputs": [
        {
          "indexed": true,
          "internalType": "address",
          "name": "owner",
          "type": "address"
        },
        {
          "indexed": true,
          "internalType": "address",
          "name": "operator",
          "type": "address"
        },
        {
          "indexed": false,
          "internalType": "bool",
          "name": "approved",
          "type": "bool"
        }
      ],
      "name": "ApprovalForAll",
      "type": "event"
    },
    {
      "anonymous": false,
      "inputs": [
        {
          "indexed": true,
          "internalType": "address",
          "name": "from",
          "type": "address"
        },
        {
          "indexed": true,
          "internalType": "address",
          "name": "to",
          "type": "address"
        },
        {
          "indexed": true,
          "internalType": "uint256",
          "name": "tokenId",
          "type": "uint256"
        }
      ],
      "name": "Transfer",
      "type": "event"
    },
    {
      "inputs": [
        {
          "internalType": "address",
          "name": "to",
          "type": "address"
        },
        {
          "internalType": "uint256",
          "name": "tokenId",
          "type": "uint256"
        }
      ],
      "name": "approve",
      "outputs": [],
      "stateMutability": "nonpayable",
      "type": "function"
    },
    {
      "inputs": [
        {
          "internalType": "address",
          "name": "owner",
          "type": "address"
        }
      ],
      "name": "balanceOf",
      "outputs": [
        {
          "internalType": "uint256",
          "name": "",
          "type": "uint256"
        }
      ],
      "stateMutability": "view",
      "type": "function"
    },
    {
      "inputs": [
        {
          "internalType": "uint256",
          "name": "tokenId",
          "type": "uint256"
        }
      ],
      "name": "getApproved",
      "outputs": [
        {
          "internalType": "address",
          "name": "",
          "type": "address"
        }
      ],
      "stateMutability": "view",
      "type": "function"
    },
    {
      "inputs": [
        {
          "internalType": "address",
          "name": "owner",
          "type": "address"
        },
        {
          "internalType": "address",
          "name": "operator",
          "type": "address"
        }
      ],
      "name": "isApprovedForAll",
      "outputs": [
        {
          "internalType": "bool",
          "name": "",
          "type": "bool"
        }
      ],
      "stateMutability": "view",
      "type": "function"
    },
    {
      "inputs": [
        {
          "internalType": "address",
          "name": "recipient",
          "type": "address"
        }
      ],
      "name": "mintTo",
      "outputs": [
        {
          "internalType": "uint256",
          "name": "",
          "type": "uint256"
        }
      ],
      "stateMutability": "nonpayable",
      "type": "function"
    },
    {
      "inputs": [],
      "name": "name",
      "outputs": [
        {
          "internalType": "string",
          "name": "",
          "type": "string"
        }
      ],
      "stateMutability": "view",
      "type": "function"
    },
    {
      "inputs": [
        {
          "internalType": "uint256",
          "name": "tokenId",
          "type": "uint256"
        }
      ],
      "name": "ownerOf",
      "outputs": [
        {
          "internalType": "address",
          "name": "",
          "type": "address"
        }
      ],
      "stateMutability": "view",
      "type": "function"
    },
    {
      "inputs": [
        {
          "internalType": "address",
          "name": "from",
          "type": "address"
        },
        {
          "internalType": "address",
          "name": "to",
          "type": "address"
        },
        {
          "internalType": "uint256",
          "name": "tokenId",
          "type": "uint256"
        }
      ],
      "name": "safeTransferFrom",
      "outputs": [],
      "stateMutability": "nonpayable",
      "type": "function"
    },
    {
      "inputs": [
        {
          "internalType": "address",
          "name": "from",
          "type": "address"
        },
        {
          "internalType": "address",
          "name": "to",
          "type": "address"
        },
        {
          "internalType": "uint256",
          "name": "tokenId",
          "type": "uint256"
        },
        {
          "internalType": "bytes",
          "name": "data",
          "type": "bytes"
        }
      ],
      "name": "safeTransferFrom",
      "outputs": [],
      "stateMutability": "nonpayable",
      "type": "function"
    },
    {
      "inputs": [
        {
          "internalType": "address",
          "name": "operator",
          "type": "address"
        },
        {
          "internalType": "bool",
          "name": "approved",
          "type": "bool"
        }
      ],
      "name": "setApprovalForAll",
      "outputs": [],
      "stateMutability": "nonpayable",
      "type": "function"
    },
    {
      "inputs": [
        {
          "internalType": "bytes4",
          "name": "interfaceId",
          "type": "bytes4"
        }
      ],
      "name": "supportsInterface",
      "outputs": [
        {
          "internalType": "bool",
          "name": "",
          "type": "bool"
        }
      ],
      "stateMutability": "view",
      "type": "function"
    },
    {
      "inputs": [],
      "name": "symbol",
      "outputs": [
        {
          "internalType": "string",
          "name": "",
          "type": "string"
        }
      ],
      "stateMutability": "view",
      "type": "function"
    },
    {
      "inputs": [
        {
          "internalType": "uint256",
          "name": "tokenId",
          "type": "uint256"
        }
      ],
      "name": "tokenURI",
      "outputs": [
        {
          "internalType": "string",
          "name": "",
          "type": "string"
        }
      ],
      "stateMutability": "view",
      "type": "function"
    },
    {
      "inputs": [
        {
          "internalType": "address",
          "name": "from",
          "type": "address"
        },
        {
          "internalType": "address",
          "name": "to",
          "type": "address"
        },
        {
          "internalType": "uint256",
          "name": "tokenId",
          "type": "uint256"
        }
      ],
      "name": "transferFrom",
      "outputs": [],
      "stateMutability": "nonpayable",
      "type": "function"
    }
  ],
  "bytecode": "0x60806040523480156200001157600080fd5b506040518060400160405280600b81526020017f4e46545475746f7269616c0000000000000000000000000000000000000000008152506040518060400160405280600381526020017f4e46540000000000000000000000000000000000000000000000000000000000815250816000908051906020019062000096929190620000b8565b508060019080519060200190620000af929190620000b8565b505050620001cd565b828054620000c69062000168565b90600052602060002090601f016020900481019282620000ea576000855562000136565b82601f106200010557805160ff191683800117855562000136565b8280016001018555821562000136579182015b828111156200013557825182559160200191906001019062000118565b5b50905062000145919062000149565b5090565b5b80821115620001645760008160009055506001016200014a565b5090565b600060028204905060018216806200018157607f821691505b602082108114156200019857620001976200019e565b5b50919050565b7f4e487b7100000000000000000000000000000000000000000000000000000000600052602260045260246000fd5b61253680620001dd6000396000f3fe608060405234801561001057600080fd5b50600436106100ea5760003560e01c806370a082311161008c578063a22cb46511610066578063a22cb4651461026f578063b88d4fde1461028b578063c87b56dd146102a7578063e985e9c5146102d7576100ea565b806370a08231146101f1578063755edd171461022157806395d89b4114610251576100ea565b8063095ea7b3116100c8578063095ea7b31461016d57806323b872dd1461018957806342842e0e146101a55780636352211e146101c1576100ea565b806301ffc9a7146100ef57806306fdde031461011f578063081812fc1461013d575b600080fd5b61010960048036038101906101049190611914565b610307565b6040516101169190611c6b565b60405180910390f35b6101276103e9565b6040516101349190611c86565b60405180910390f35b61015760048036038101906101529190611966565b61047b565b6040516101649190611c04565b60405180910390f35b610187600480360381019061018291906118d8565b6104c1565b005b6101a3600480360381019061019e91906117d2565b6105d9565b005b6101bf60048036038101906101ba91906117d2565b610639565b005b6101db60048036038101906101d69190611966565b610659565b6040516101e89190611c04565b60405180910390f35b61020b6004803603810190610206919061176d565b61070b565b6040516102189190611e08565b60405180910390f35b61023b6004803603810190610236919061176d565b6107c3565b6040516102489190611e08565b60405180910390f35b6102596107f0565b6040516102669190611c86565b60405180910390f35b6102896004803603810190610284919061189c565b610882565b005b6102a560048036038101906102a09190611821565b610898565b005b6102c160048036038101906102bc9190611966565b6108fa565b6040516102ce9190611c86565b60405180910390f35b6102f160048036038101906102ec9190611796565b610962565b6040516102fe9190611c6b565b60405180910390f35b60007f80ac58cd000000000000000000000000000000000000000000000000000000007bffffffffffffffffffffffffffffffffffffffffffffffffffffffff1916827bffffffffffffffffffffffffffffffffffffffffffffffffffffffff191614806103d257507f5b5e139f000000000000000000000000000000000000000000000000000000007bffffffffffffffffffffffffffffffffffffffffffffffffffffffff1916827bffffffffffffffffffffffffffffffffffffffffffffffffffffffff1916145b806103e257506103e1826109f6565b5b9050919050565b6060600080546103f89061202d565b80601f01602080910402602001604051908101604052809291908181526020018280546104249061202d565b80156104715780601f1061044657610100808354040283529160200191610471565b820191906000526020600020905b81548152906001019060200180831161045457829003601f168201915b5050505050905090565b600061048682610a60565b6004600083815260200190815260200160002060009054906101000a900473ffffffffffffffffffffffffffffffffffffffff169050919050565b60006104cc82610659565b90508073ffffffffffffffffffffffffffffffffffffffff168373ffffffffffffffffffffffffffffffffffffffff16141561053d576040517f08c379a000000000000000000000000000000000000000000000000000000000815260040161053490611dc8565b60405180910390fd5b8073ffffffffffffffffffffffffffffffffffffffff1661055c610aab565b73ffffffffffffffffffffffffffffffffffffffff16148061058b575061058a81610585610aab565b610962565b5b6105ca576040517f08c379a00000000000000000000000000000000000000000000000000000000081526004016105c190611d68565b60405180910390fd5b6105d48383610ab3565b505050565b6105ea6105e4610aab565b82610b6c565b610629576040517f08c379a000000000000000000000000000000000000000000000000000000000815260040161062090611de8565b60405180910390fd5b610634838383610c01565b505050565b61065483838360405180602001604052806000815250610898565b505050565b6000806002600084815260200190815260200160002060009054906101000a900473ffffffffffffffffffffffffffffffffffffffff169050600073ffffffffffffffffffffffffffffffffffffffff168173ffffffffffffffffffffffffffffffffffffffff161415610702576040517f08c379a00000000000000000000000000000000000000000000000000000000081526004016106f990611da8565b60405180910390fd5b80915050919050565b60008073ffffffffffffffffffffffffffffffffffffffff168273ffffffffffffffffffffffffffffffffffffffff16141561077c576040517f08c379a000000000000000000000000000000000000000000000000000000000815260040161077390611d48565b60405180910390fd5b600360008373ffffffffffffffffffffffffffffffffffffffff1673ffffffffffffffffffffffffffffffffffffffff168152602001908152602001600020549050919050565b60006107cf6006610e68565b60006107db6006610e7e565b90506107e78382610e8c565b80915050919050565b6060600180546107ff9061202d565b80601f016020809104026020016040519081016040528092919081815260200182805461082b9061202d565b80156108785780601f1061084d57610100808354040283529160200191610878565b820191906000526020600020905b81548152906001019060200180831161085b57829003601f168201915b5050505050905090565b61089461088d610aab565b8383610eaa565b5050565b6108a96108a3610aab565b83610b6c565b6108e8576040517f08c379a00000000000000000000000000000000000000000000000000000000081526004016108df90611de8565b60405180910390fd5b6108f484848484611017565b50505050565b606061090582610a60565b600061090f611073565b9050600081511161092f576040518060200160405280600081525061095a565b806109398461108a565b60405160200161094a929190611be0565b6040516020818303038152906040525b915050919050565b6000600560008473ffffffffffffffffffffffffffffffffffffffff1673ffffffffffffffffffffffffffffffffffffffff16815260200190815260200160002060008373ffffffffffffffffffffffffffffffffffffffff1673ffffffffffffffffffffffffffffffffffffffff16815260200190815260200160002060009054906101000a900460ff16905092915050565b60007f01ffc9a7000000000000000000000000000000000000000000000000000000007bffffffffffffffffffffffffffffffffffffffffffffffffffffffff1916827bffffffffffffffffffffffffffffffffffffffffffffffffffffffff1916149050919050565b610a6981611237565b610aa8576040517f08c379a0000000000000000000000000000000000000000000000000000000008152600401610a9f90611da8565b60405180910390fd5b50565b600033905090565b816004600083815260200190815260200160002060006101000a81548173ffffffffffffffffffffffffffffffffffffffff021916908373ffffffffffffffffffffffffffffffffffffffff160217905550808273ffffffffffffffffffffffffffffffffffffffff16610b2683610659565b73ffffffffffffffffffffffffffffffffffffffff167f8c5be1e5ebec7d5bd14f71427d1e84f3dd0314c0f7b2291e5b200ac8c7c3b92560405160405180910390a45050565b600080610b7883610659565b90508073ffffffffffffffffffffffffffffffffffffffff168473ffffffffffffffffffffffffffffffffffffffff161480610bba5750610bb98185610962565b5b80610bf857508373ffffffffffffffffffffffffffffffffffffffff16610be08461047b565b73ffffffffffffffffffffffffffffffffffffffff16145b91505092915050565b8273ffffffffffffffffffffffffffffffffffffffff16610c2182610659565b73ffffffffffffffffffffffffffffffffffffffff1614610c77576040517f08c379a0000000000000000000000000000000000000000000000000000000008152600401610c6e90611cc8565b60405180910390fd5b600073ffffffffffffffffffffffffffffffffffffffff168273ffffffffffffffffffffffffffffffffffffffff161415610ce7576040517f08c379a0000000000000000000000000000000000000000000000000000000008152600401610cde90611d08565b60405180910390fd5b610cf28383836112a3565b610cfd600082610ab3565b6001600360008573ffffffffffffffffffffffffffffffffffffffff1673ffffffffffffffffffffffffffffffffffffffff1681526020019081526020016000206000828254610d4d9190611f43565b925050819055506001600360008473ffffffffffffffffffffffffffffffffffffffff1673ffffffffffffffffffffffffffffffffffffffff1681526020019081526020016000206000828254610da49190611ebc565b92505081905550816002600083815260200190815260200160002060006101000a81548173ffffffffffffffffffffffffffffffffffffffff021916908373ffffffffffffffffffffffffffffffffffffffff160217905550808273ffffffffffffffffffffffffffffffffffffffff168473ffffffffffffffffffffffffffffffffffffffff167fddf252ad1be2c89b69c2b068fc378daa952ba7f163c4a11628f55a4df523b3ef60405160405180910390a4610e638383836112a8565b505050565b6001816000016000828254019250508190555050565b600081600001549050919050565b610ea68282604051806020016040528060008152506112ad565b5050565b8173ffffffffffffffffffffffffffffffffffffffff168373ffffffffffffffffffffffffffffffffffffffff161415610f19576040517f08c379a0000000000000000000000000000000000000000000000000000000008152600401610f1090611d28565b60405180910390fd5b80600560008573ffffffffffffffffffffffffffffffffffffffff1673ffffffffffffffffffffffffffffffffffffffff16815260200190815260200160002060008473ffffffffffffffffffffffffffffffffffffffff1673ffffffffffffffffffffffffffffffffffffffff16815260200190815260200160002060006101000a81548160ff0219169083151502179055508173ffffffffffffffffffffffffffffffffffffffff168373ffffffffffffffffffffffffffffffffffffffff167f17307eab39ab6107e8899845ad3d59bd9653f200f220920489ca2b5937696c318360405161100a9190611c6b565b60405180910390a3505050565b611022848484610c01565b61102e84848484611308565b61106d576040517f08c379a000000000000000000000000000000000000000000000000000000000815260040161106490611ca8565b60405180910390fd5b50505050565b606060405180602001604052806000815250905090565b606060008214156110d2576040518060400160405280600181526020017f30000000000000000000000000000000000000000000000000000000000000008152509050611232565b600082905060005b600082146111045780806110ed90612090565b915050600a826110fd9190611f12565b91506110da565b60008167ffffffffffffffff811115611146577f4e487b7100000000000000000000000000000000000000000000000000000000600052604160045260246000fd5b6040519080825280601f01601f1916602001820160405280156111785781602001600182028036833780820191505090505b5090505b6000851461122b576001826111919190611f43565b9150600a856111a091906120d9565b60306111ac9190611ebc565b60f81b8183815181106111e8577f4e487b7100000000000000000000000000000000000000000000000000000000600052603260045260246000fd5b60200101907effffffffffffffffffffffffffffffffffffffffffffffffffffffffffffff1916908160001a905350600a856112249190611f12565b945061117c565b8093505050505b919050565b60008073ffffffffffffffffffffffffffffffffffffffff166002600084815260200190815260200160002060009054906101000a900473ffffffffffffffffffffffffffffffffffffffff1673ffffffffffffffffffffffffffffffffffffffff1614159050919050565b505050565b505050565b6112b7838361149f565b6112c46000848484611308565b611303576040517f08c379a00000000000000000000000000000000000000000000000000000000081526004016112fa90611ca8565b60405180910390fd5b505050565b60006113298473ffffffffffffffffffffffffffffffffffffffff16611679565b15611492578373ffffffffffffffffffffffffffffffffffffffff1663150b7a02611352610aab565b8786866040518563ffffffff1660e01b81526004016113749493929190611c1f565b602060405180830381600087803b15801561138e57600080fd5b505af19250505080156113bf57506040513d601f19601f820116820180604052508101906113bc919061193d565b60015b611442573d80600081146113ef576040519150601f19603f3d011682016040523d82523d6000602084013e6113f4565b606091505b5060008151141561143a576040517f08c379a000000000000000000000000000000000000000000000000000000000815260040161143190611ca8565b60405180910390fd5b805181602001fd5b63150b7a0260e01b7bffffffffffffffffffffffffffffffffffffffffffffffffffffffff1916817bffffffffffffffffffffffffffffffffffffffffffffffffffffffff191614915050611497565b600190505b949350505050565b600073ffffffffffffffffffffffffffffffffffffffff168273ffffffffffffffffffffffffffffffffffffffff16141561150f576040517f08c379a000000000000000000000000000000000000000000000000000000000815260040161150690611d88565b60405180910390fd5b61151881611237565b15611558576040517f08c379a000000000000000000000000000000000000000000000000000000000815260040161154f90611ce8565b60405180910390fd5b611564600083836112a3565b6001600360008473ffffffffffffffffffffffffffffffffffffffff1673ffffffffffffffffffffffffffffffffffffffff16815260200190815260200160002060008282546115b49190611ebc565b92505081905550816002600083815260200190815260200160002060006101000a81548173ffffffffffffffffffffffffffffffffffffffff021916908373ffffffffffffffffffffffffffffffffffffffff160217905550808273ffffffffffffffffffffffffffffffffffffffff16600073ffffffffffffffffffffffffffffffffffffffff167fddf252ad1be2c89b69c2b068fc378daa952ba7f163c4a11628f55a4df523b3ef60405160405180910390a4611675600083836112a8565b5050565b6000808273ffffffffffffffffffffffffffffffffffffffff163b119050919050565b60006116af6116aa84611e48565b611e23565b9050828152602081018484840111156116c757600080fd5b6116d2848285611feb565b509392505050565b6000813590506116e9816124a4565b92915050565b6000813590506116fe816124bb565b92915050565b600081359050611713816124d2565b92915050565b600081519050611728816124d2565b92915050565b600082601f83011261173f57600080fd5b813561174f84826020860161169c565b91505092915050565b600081359050611767816124e9565b92915050565b60006020828403121561177f57600080fd5b600061178d848285016116da565b91505092915050565b600080604083850312156117a957600080fd5b60006117b7858286016116da565b92505060206117c8858286016116da565b9150509250929050565b6000806000606084860312156117e757600080fd5b60006117f5868287016116da565b9350506020611806868287016116da565b925050604061181786828701611758565b9150509250925092565b6000806000806080858703121561183757600080fd5b6000611845878288016116da565b9450506020611856878288016116da565b935050604061186787828801611758565b925050606085013567ffffffffffffffff81111561188457600080fd5b6118908782880161172e565b91505092959194509250565b600080604083850312156118af57600080fd5b60006118bd858286016116da565b92505060206118ce858286016116ef565b9150509250929050565b600080604083850312156118eb57600080fd5b60006118f9858286016116da565b925050602061190a85828601611758565b9150509250929050565b60006020828403121561192657600080fd5b600061193484828501611704565b91505092915050565b60006020828403121561194f57600080fd5b600061195d84828501611719565b91505092915050565b60006020828403121561197857600080fd5b600061198684828501611758565b91505092915050565b61199881611f77565b82525050565b6119a781611f89565b82525050565b60006119b882611e79565b6119c28185611e8f565b93506119d2818560208601611ffa565b6119db816121c6565b840191505092915050565b60006119f182611e84565b6119fb8185611ea0565b9350611a0b818560208601611ffa565b611a14816121c6565b840191505092915050565b6000611a2a82611e84565b611a348185611eb1565b9350611a44818560208601611ffa565b80840191505092915050565b6000611a5d603283611ea0565b9150611a68826121d7565b604082019050919050565b6000611a80602583611ea0565b9150611a8b82612226565b604082019050919050565b6000611aa3601c83611ea0565b9150611aae82612275565b602082019050919050565b6000611ac6602483611ea0565b9150611ad18261229e565b604082019050919050565b6000611ae9601983611ea0565b9150611af4826122ed565b602082019050919050565b6000611b0c602983611ea0565b9150611b1782612316565b604082019050919050565b6000611b2f603e83611ea0565b9150611b3a82612365565b604082019050919050565b6000611b52602083611ea0565b9150611b5d826123b4565b602082019050919050565b6000611b75601883611ea0565b9150611b80826123dd565b602082019050919050565b6000611b98602183611ea0565b9150611ba382612406565b604082019050919050565b6000611bbb602e83611ea0565b9150611bc682612455565b604082019050919050565b611bda81611fe1565b82525050565b6000611bec8285611a1f565b9150611bf88284611a1f565b91508190509392505050565b6000602082019050611c19600083018461198f565b92915050565b6000608082019050611c34600083018761198f565b611c41602083018661198f565b611c4e6040830185611bd1565b8181036060830152611c6081846119ad565b905095945050505050565b6000602082019050611c80600083018461199e565b92915050565b60006020820190508181036000830152611ca081846119e6565b905092915050565b60006020820190508181036000830152611cc181611a50565b9050919050565b60006020820190508181036000830152611ce181611a73565b9050919050565b60006020820190508181036000830152611d0181611a96565b9050919050565b60006020820190508181036000830152611d2181611ab9565b9050919050565b60006020820190508181036000830152611d4181611adc565b9050919050565b60006020820190508181036000830152611d6181611aff565b9050919050565b60006020820190508181036000830152611d8181611b22565b9050919050565b60006020820190508181036000830152611da181611b45565b9050919050565b60006020820190508181036000830152611dc181611b68565b9050919050565b60006020820190508181036000830152611de181611b8b565b9050919050565b60006020820190508181036000830152611e0181611bae565b9050919050565b6000602082019050611e1d6000830184611bd1565b92915050565b6000611e2d611e3e565b9050611e39828261205f565b919050565b6000604051905090565b600067ffffffffffffffff821115611e6357611e62612197565b5b611e6c826121c6565b9050602081019050919050565b600081519050919050565b600081519050919050565b600082825260208201905092915050565b600082825260208201905092915050565b600081905092915050565b6000611ec782611fe1565b9150611ed283611fe1565b9250827fffffffffffffffffffffffffffffffffffffffffffffffffffffffffffffffff03821115611f0757611f0661210a565b5b828201905092915050565b6000611f1d82611fe1565b9150611f2883611fe1565b925082611f3857611f37612139565b5b828204905092915050565b6000611f4e82611fe1565b9150611f5983611fe1565b925082821015611f6c57611f6b61210a565b5b828203905092915050565b6000611f8282611fc1565b9050919050565b60008115159050919050565b60007fffffffff0000000000000000000000000000000000000000000000000000000082169050919050565b600073ffffffffffffffffffffffffffffffffffffffff82169050919050565b6000819050919050565b82818337600083830152505050565b60005b83811015612018578082015181840152602081019050611ffd565b83811115612027576000848401525b50505050565b6000600282049050600182168061204557607f821691505b6020821081141561205957612058612168565b5b50919050565b612068826121c6565b810181811067ffffffffffffffff8211171561208757612086612197565b5b80604052505050565b600061209b82611fe1565b91507fffffffffffffffffffffffffffffffffffffffffffffffffffffffffffffffff8214156120ce576120cd61210a565b5b600182019050919050565b60006120e482611fe1565b91506120ef83611fe1565b9250826120ff576120fe612139565b5b828206905092915050565b7f4e487b7100000000000000000000000000000000000000000000000000000000600052601160045260246000fd5b7f4e487b7100000000000000000000000000000000000000000000000000000000600052601260045260246000fd5b7f4e487b7100000000000000000000000000000000000000000000000000000000600052602260045260246000fd5b7f4e487b7100000000000000000000000000000000000000000000000000000000600052604160045260246000fd5b6000601f19601f8301169050919050565b7f4552433732313a207472616e7366657220746f206e6f6e20455243373231526560008201527f63656976657220696d706c656d656e7465720000000000000000000000000000602082015250565b7f4552433732313a207472616e736665722066726f6d20696e636f72726563742060008201527f6f776e6572000000000000000000000000000000000000000000000000000000602082015250565b7f4552433732313a20746f6b656e20616c7265616479206d696e74656400000000600082015250565b7f4552433732313a207472616e7366657220746f20746865207a65726f2061646460008201527f7265737300000000000000000000000000000000000000000000000000000000602082015250565b7f4552433732313a20617070726f766520746f2063616c6c657200000000000000600082015250565b7f4552433732313a2061646472657373207a65726f206973206e6f74206120766160008201527f6c6964206f776e65720000000000000000000000000000000000000000000000602082015250565b7f4552433732313a20617070726f76652063616c6c6572206973206e6f7420746f60008201527f6b656e206f776e6572206e6f7220617070726f76656420666f7220616c6c0000602082015250565b7f4552433732313a206d696e7420746f20746865207a65726f2061646472657373600082015250565b7f4552433732313a20696e76616c696420746f6b656e2049440000000000000000600082015250565b7f4552433732313a20617070726f76616c20746f2063757272656e74206f776e6560008201527f7200000000000000000000000000000000000000000000000000000000000000602082015250565b7f4552433732313a2063616c6c6572206973206e6f7420746f6b656e206f776e6560008201527f72206e6f7220617070726f766564000000000000000000000000000000000000602082015250565b6124ad81611f77565b81146124b857600080fd5b50565b6124c481611f89565b81146124cf57600080fd5b50565b6124db81611f95565b81146124e657600080fd5b50565b6124f281611fe1565b81146124fd57600080fd5b5056fea2646970667358221220e8d9a7e0fdacce9fed97b502afed197269e812f28f3a2630d3074a404f8e0fa764736f6c63430008010033",
  "linkReferences": {},
  "deployedLinkReferences": {}
}