{
  "_format": "hh-sol-artifact-1",
  "contractName": "Escrow",
  "sourceName": "@openzeppelin/contracts/utils/escrow/Escrow.sol",
  "abi": [
    {
      "anonymous": false,
      "inputs": [
        {
          "indexed": true,
          "internalType": "address",
          "name": "payee",
          "type": "address"
        },
        {
          "indexed": false,
          "internalType": "uint256",
          "name": "weiAmount",
          "type": "uint256"
        }
      ],
      "name": "Deposited",
      "type": "event"
    },
    {
      "anonymous": false,
      "inputs": [
        {
          "indexed": true,
          "internalType": "address",
          "name": "previousOwner",
          "type": "address"
        },
        {
          "indexed": true,
          "internalType": "address",
          "name": "newOwner",
          "type": "address"
        }
      ],
      "name": "OwnershipTransferred",
      "type": "event"
    },
    {
      "anonymous": false,
      "inputs": [
        {
          "indexed": true,
          "internalType": "address",
          "name": "payee",
          "type": "address"
        },
        {
          "indexed": false,
          "internalType": "uint256",
          "name": "weiAmount",
          "type": "uint256"
        }
      ],
      "name": "Withdrawn",
      "type": "event"
    },
    {
      "inputs": [
        {
          "internalType": "address",
          "name": "payee",
          "type": "address"
        }
      ],
      "name": "deposit",
      "outputs": [],
      "stateMutability": "payable",
      "type": "function"
    },
    {
      "inputs": [
        {
          "internalType": "address",
          "name": "payee",
          "type": "address"
        }
      ],
      "name": "depositsOf",
      "outputs": [
        {
          "internalType": "uint256",
          "name": "",
          "type": "uint256"
        }
      ],
      "stateMutability": "view",
      "type": "function"
    },
    {
      "inputs": [],
      "name": "owner",
      "outputs": [
        {
          "internalType": "address",
          "name": "",
          "type": "address"
        }
      ],
      "stateMutability": "view",
      "type": "function"
    },
    {
      "inputs": [],
      "name": "renounceOwnership",
      "outputs": [],
      "stateMutability": "nonpayable",
      "type": "function"
    },
    {
      "inputs": [
        {
          "internalType": "address",
          "name": "newOwner",
          "type": "address"
        }
      ],
      "name": "transferOwnership",
      "outputs": [],
      "stateMutability": "nonpayable",
      "type": "function"
    },
    {
      "inputs": [
        {
          "internalType": "address payable",
          "name": "payee",
          "type": "address"
        }
      ],
      "name": "withdraw",
      "outputs": [],
      "stateMutability": "nonpayable",
      "type": "function"
    }
  ],
  "bytecode": "0x608060405234801561001057600080fd5b5061002d61002261003260201b60201c565b61003a60201b60201c565b6100fe565b600033905090565b60008060009054906101000a900473ffffffffffffffffffffffffffffffffffffffff169050816000806101000a81548173ffffffffffffffffffffffffffffffffffffffff021916908373ffffffffffffffffffffffffffffffffffffffff1602179055508173ffffffffffffffffffffffffffffffffffffffff168173ffffffffffffffffffffffffffffffffffffffff167f8be0079c531659141344cd1fd0a4f28419497f9722a3daafe3b4186f6b6457e060405160405180910390a35050565b610aaa8061010d6000396000f3fe6080604052600436106100555760003560e01c806351cff8d91461005a578063715018a6146100835780638da5cb5b1461009a578063e3a9db1a146100c5578063f2fde38b14610102578063f340fa011461012b575b600080fd5b34801561006657600080fd5b50610081600480360381019061007c91906106a3565b610147565b005b34801561008f57600080fd5b50610098610253565b005b3480156100a657600080fd5b506100af610267565b6040516100bc91906107ae565b60405180910390f35b3480156100d157600080fd5b506100ec60048036038101906100e7919061067a565b610290565b6040516100f99190610849565b60405180910390f35b34801561010e57600080fd5b506101296004803603810190610124919061067a565b6102d9565b005b6101456004803603810190610140919061067a565b61035d565b005b61014f610412565b6000600160008373ffffffffffffffffffffffffffffffffffffffff1673ffffffffffffffffffffffffffffffffffffffff1681526020019081526020016000205490506000600160008473ffffffffffffffffffffffffffffffffffffffff1673ffffffffffffffffffffffffffffffffffffffff16815260200190815260200160002081905550610201818373ffffffffffffffffffffffffffffffffffffffff1661049090919063ffffffff16565b8173ffffffffffffffffffffffffffffffffffffffff167f7084f5476618d8e60b11ef0d7d3f06914655adb8793e28ff7f018d4c76d505d5826040516102479190610849565b60405180910390a25050565b61025b610412565b6102656000610584565b565b60008060009054906101000a900473ffffffffffffffffffffffffffffffffffffffff16905090565b6000600160008373ffffffffffffffffffffffffffffffffffffffff1673ffffffffffffffffffffffffffffffffffffffff168152602001908152602001600020549050919050565b6102e1610412565b600073ffffffffffffffffffffffffffffffffffffffff168173ffffffffffffffffffffffffffffffffffffffff161415610351576040517f08c379a0000000000000000000000000000000000000000000000000000000008152600401610348906107c9565b60405180910390fd5b61035a81610584565b50565b610365610412565b600034905080600160008473ffffffffffffffffffffffffffffffffffffffff1673ffffffffffffffffffffffffffffffffffffffff16815260200190815260200160002060008282546103b99190610880565b925050819055508173ffffffffffffffffffffffffffffffffffffffff167f2da466a7b24304f47e87fa2e1e5a81b9831ce54fec19055ce277ca2f39ba42c4826040516104069190610849565b60405180910390a25050565b61041a610648565b73ffffffffffffffffffffffffffffffffffffffff16610438610267565b73ffffffffffffffffffffffffffffffffffffffff161461048e576040517f08c379a000000000000000000000000000000000000000000000000000000000815260040161048590610829565b60405180910390fd5b565b804710156104d3576040517f08c379a00000000000000000000000000000000000000000000000000000000081526004016104ca90610809565b60405180910390fd5b60008273ffffffffffffffffffffffffffffffffffffffff16826040516104f990610799565b60006040518083038185875af1925050503d8060008114610536576040519150601f19603f3d011682016040523d82523d6000602084013e61053b565b606091505b505090508061057f576040517f08c379a0000000000000000000000000000000000000000000000000000000008152600401610576906107e9565b60405180910390fd5b505050565b60008060009054906101000a900473ffffffffffffffffffffffffffffffffffffffff169050816000806101000a81548173ffffffffffffffffffffffffffffffffffffffff021916908373ffffffffffffffffffffffffffffffffffffffff1602179055508173ffffffffffffffffffffffffffffffffffffffff168173ffffffffffffffffffffffffffffffffffffffff167f8be0079c531659141344cd1fd0a4f28419497f9722a3daafe3b4186f6b6457e060405160405180910390a35050565b600033905090565b60008135905061065f81610a46565b92915050565b60008135905061067481610a5d565b92915050565b60006020828403121561068c57600080fd5b600061069a84828501610650565b91505092915050565b6000602082840312156106b557600080fd5b60006106c384828501610665565b91505092915050565b6106d5816108d6565b82525050565b60006106e860268361086f565b91506106f382610953565b604082019050919050565b600061070b603a8361086f565b9150610716826109a2565b604082019050919050565b600061072e601d8361086f565b9150610739826109f1565b602082019050919050565b600061075160208361086f565b915061075c82610a1a565b602082019050919050565b6000610774600083610864565b915061077f82610a43565b600082019050919050565b6107938161091a565b82525050565b60006107a482610767565b9150819050919050565b60006020820190506107c360008301846106cc565b92915050565b600060208201905081810360008301526107e2816106db565b9050919050565b60006020820190508181036000830152610802816106fe565b9050919050565b6000602082019050818103600083015261082281610721565b9050919050565b6000602082019050818103600083015261084281610744565b9050919050565b600060208201905061085e600083018461078a565b92915050565b600081905092915050565b600082825260208201905092915050565b600061088b8261091a565b91506108968361091a565b9250827fffffffffffffffffffffffffffffffffffffffffffffffffffffffffffffffff038211156108cb576108ca610924565b5b828201905092915050565b60006108e1826108fa565b9050919050565b60006108f3826108fa565b9050919050565b600073ffffffffffffffffffffffffffffffffffffffff82169050919050565b6000819050919050565b7f4e487b7100000000000000000000000000000000000000000000000000000000600052601160045260246000fd5b7f4f776e61626c653a206e6577206f776e657220697320746865207a65726f206160008201527f6464726573730000000000000000000000000000000000000000000000000000602082015250565b7f416464726573733a20756e61626c6520746f2073656e642076616c75652c207260008201527f6563697069656e74206d61792068617665207265766572746564000000000000602082015250565b7f416464726573733a20696e73756666696369656e742062616c616e6365000000600082015250565b7f4f776e61626c653a2063616c6c6572206973206e6f7420746865206f776e6572600082015250565b50565b610a4f816108d6565b8114610a5a57600080fd5b50565b610a66816108e8565b8114610a7157600080fd5b5056fea26469706673582212208572fc3f6c137b8243928f2f2df2b1b4a84c2f286c9f749c054889c9c924d69b64736f6c63430008010033",
  "linkReferences": {},
  "deployedLinkReferences": {}
}